:020000040800F2
:10000000008600207D020008BF1A0008691500085C
:10001000BD1A00080D03000821210008000000009F
:100020000000000000000000000000009D0100082A
:100030000F03000800000000F90100084520000837
:10004000970200089702000897020008970200082C
:10005000970200089702000897020008970200081C
:10006000970200089702000897020008970200080C
:1000700097020008970200089702000897020008FC
:1000800097020008970200089702000897020008EC
:1000900097020008970200089702000897020008DC
:1000A00097020008970200089702000897020008CC
:1000B00097020008970200089702000897020008BC
:1000C00097020008970200089702000897020008AC
:1000D000970200089702000897020008970200089C
:1000E000970200089702000897020008970200088C
:1000F000970200089702000897020008970200087C
:10010000970200089702000897020008970200086B
:10011000970200089702000897020008970200085B
:10012000970200089702000897020008970200084B
:10013000970200089702000897020008970200083B
:100140009702000897020008151900089702000896
:10015000970200089702000897020008970200081B
:10016000970200089702000897020008970200080B
:10017000970200089702000897020008000000009C
:100180009702000897020008DFF80CD000F0ACF8E6
:10019000004800475D220008008600202C4B1968AB
:1001A000086800F05AB880F30988BFF36F8F4FF0EA
:1001B000000080F3118870470000000008480068C4
:1001C000006880F308884FF0000080F3148862B65E
:1001D00061B6BFF34F8FBFF36F8F00DF00BF00BF6B
:1001E00008ED00E0DFF80C00016841F470010160E7
:1001F000704700BF88ED00E0EFF30980BFF36F8F19
:10020000134B1A681EF0100F08BF20ED108A20E96A
:10021000F04F106009B44FF0500080F31188BFF325
:100220004F8FBFF36F8F03F075FB4FF0000080F32B
:10023000118809BC1968086800F014B81EF0100F86
:1002400008BF00F014B880F30988BFF36F8F7047C0
:1002500034000020EFF30580704730C8B0E8C04F8D
:10026000FFF7A1BF30C8B0E8C04FFFF7E7BFB0EC61
:10027000088AB0EC08CAFFF7E6BF000006488047CE
:1002800006480047FEE7FEE7FEE7FEE7FEE7FEE77B
:10029000FEE7FEE7FEE7FEE7D1200008890100083F
:1002A00040EA01039B0703D009E008C9121F08C0F8
:1002B000042AFAD203E011F8013B00F8013B521E78
:1002C000F9D27047D2B201E000F8012B491EFBD2EF
:1002D00070470022F6E710B513460A460446194651
:1002E000FFF7F0FF204610BD064C074D06E0E06822
:1002F00040F0010394E8070098471034AC42F6D36D
:10030000FFF746FF98450008B8450008FEE770472C
:100310007047000078B503460022E5E001269640CC
:100320000D6805EA0604002C7DD04D68022D02D030
:100330004D68122D13D1D60803F1200555F826007B
:100340005507EE0E0F25B540A8435607F60E0D696A
:10035000B5402843D60803F1200545F82600186863
:1003600056000325B540A8430D7905F00305560056
:10037000B540284318604D68012D08D04D68022D06
:1003800005D04D68112D02D04D68122D13D19868FB
:1003900056000325B540A8435600CD68B540284314
:1003A0009860586801259540A8430D79C5F300155C
:1003B0009540284358600D7905F00305032D09D1B8
:1003C000D86A01259540A8430D79C5F3C00595402D
:1003D0002843D862D86856000325B540A843560084
:1003E0008D68B5402843D8604D6805F08055B5F15B
:1003F000805F78D100BF3F4D2D6E45F001053D4E29
:10040000356635462D6E05F00105009500BF00BF2D
:100410004FEAB635960855F8260095072E0F0F259A
:10042000B540A84300E05EE0B3F1904F01D1002554
:100430001EE0314DAB4201D1012519E02F4DAB42F9
:1004400001D1022514E02E4DAB4201D103250FE06E
:100450002C4DAB4201D104250AE02B4DAB4201D11A
:10046000052505E0294DAB4201D1062500E0072511
:100470009607360FB5402843254D960845F82600C7
:10048000244D2868A0434D6805F48035B5F5803FBC
:1004900000D120431F4D28602D1D2868A0434D68C2
:1004A00005F40035B5F5003F00D12043194D2D1D51
:1004B00028602D1D2868A0434D6805F48015B5F50A
:1004C000801F00D12043134D083528602D1D28685A
:1004D000A0434D6805F40015B5F5001F00D1204379
:1004E0000C4D0C352860521C0D68D540002D7FF452
:1004F00015AF78BD00100240000400480008004815
:10050000000C004800100048001400480018004883
:1005100008000140000401400148006870470000E5
:10052000980000200348006803490968084401490D
:100530000860704798000020A000002010B500243B
:100540000948006840F4807007490860032000F003
:10055000ABF8002000F00AF808B1012401E000F037
:1005600031F8204610BD00000020024070B504465E
:10057000002511480068D8B10F4800684FF47A711F
:10058000B1FBF0F00D490968B1FBF0F6304600F020
:10059000D1FF58B9102C07D200222146501E00F07E
:1005A00041F80748046004E0012502E0012500E06D
:1005B0000125284670BD0000A0000020A4000020F6
:1005C0009C00002008B500BF0D48006E40F00100FF
:1005D0000B4908660846006E00F00100009000BF5D
:1005E00000BF00BF0846806D40F080508865084617
:1005F000806D00F08050009000BF00BF08BD00007B
:100600000010024001460846002809DB00F01F03E5
:1006100001229A4043099B0003F1E023C3F8002123
:1006200000BF70472DE9F05F80460D461646002753
:1006300001F078FD074639462A46334601F00700A7
:10064000C0F1070ABAF1040F02D94FF0040A01E021
:10065000C0F1070AD14600F1040ABAF1070F02D22D
:100660004FF0000A01E0A0F1030AD4464FF0010A5E
:100670000AFA09FAAAF1010A0AEA020A0AFA0CFAC3
:100680004FF0010B0BFA0CFBABF1010B0BEA030B68
:100690004AEA0B042146404601F04CFD00F000B848
:1006A00030BCBDE8C09F000000BF00F00702064B51
:1006B00019684FF6FF031940044B0B4343EA02212C
:1006C000014B196000BF70470CED00E00000FA0517
:1006D0000246B2F5007F2AD11D48006800F4C060D0
:1006E000B0F5007F32D01A48006820F4C06040F4B2
:1006F0000070174B18601748006832235843164B98
:10070000B0FBF3F0411C00E0491E1148406900F4C1
:100710008060B0F5806F01D10029F5D10C484069A7
:1007200000F48060B0F5806F10D103207047084856
:10073000006800F4C060B0F5806F07D0044800681E
:1007400020F4C06040F48060014B18600020EDE7A9
:1007500000700040A400002040420F0002480068E2
:1007600000F4C06070470000007000402DE9F843BD
:1007700004460025A846208800F40060B0F5006F0C
:1007800030D1606E80B1B0F5800F13D0B0F5000F9E
:1007900003D0B0F5400F15D113E0FB48C06840F41A
:1007A0008030F949C8600FE00021201D01F088F970
:1007B000054609E0002104F1200001F047FA054652
:1007C00002E001E0012500BF00BF55B9EE488830C6
:1007D000006820F44000616E0843EB49C1F88800CE
:1007E00000E0A846208800F48050B0F5805F30D14A
:1007F000A06E80B1B0F1807F13D0B0F1007F03D044
:10080000B0F1407F15D113E0DF48C06840F480307C
:10081000DD49C8600FE00021201D01F051F90546B7
:1008200009E0002104F1200001F010FA054602E081
:1008300001E0012500BF00BF55B9D34888300068EA
:1008400020F04070A16E0843CF49C1F8880000E055
:10085000A846206800F40030B0F5003F77D14FF093
:100860000009C948806D012121EA107078B100BFEC
:10087000C548806D40F08050C34988650846806D4A
:1008800000F08050009000BF00BF4FF00109BF484A
:10089000006840F48070BD490860FFF73DFE0746E0
:1008A00006E0FFF739FEC01B022801D9032505E049
:1008B000B648006800F480700028F2D000BF85BB05
:1008C000B1489030006800F44076D6B1D4F8840086
:1008D000B04216D0AC489030006820F44076AA4868
:1008E000D0F8900040F48030A749C1F89000084645
:1008F000D0F8900020F48030C1F890000846C0F88D
:10090000906006F00100A8B1FFF706FE074609E077
:10091000FFF702FEC01B41F28831884202D903254D
:1009200007E017E098489030006800F002000028C7
:10093000EED000BF65B994489030006820F4407054
:10094000D4F8841008439049C1F8900003E00CE00B
:10095000A84600E0A846B9F1010F05D18A48806D8C
:1009600020F080508849886500BF207800F00100A1
:1009700048B185488830006820F00300A16B084327
:100980008149C1F88800207800F00200022809D1CE
:100990007D488830006820F00C00E16B08437A49FC
:1009A000C1F88800207800F00400042809D17648B6
:1009B0008830006820F03000216C08437249C1F88B
:1009C0008800207800F00800082809D16E48883097
:1009D000006820F0C000616C08436B49C1F88800D2
:1009E000207800F01000102809D16748883000688E
:1009F00020F44070A16C08436349C1F88800207856
:100A000000F02000202809D15F488830006820F4D9
:100A10004060E16C08435C49C1F88800208800F41C
:100A20000070B0F5007F09D157488830006820F485
:100A30004020E16D08435449C1F88800208800F443
:100A40008060B0F5806F09D14F488830006820F48D
:100A50004010216E08434C49C1F88800207800F00E
:100A60004000402809D148488830006820F44050B0
:100A7000216D08434449C1F88800207800F08000C7
:100A8000802809D140488830006820F44040616DDA
:100A900008433D49C1F88800208800F48070B0F513
:100AA000807F09D138488830006820F44030A16D3B
:100AB00008433549C1F88800208800F40050B0F59B
:100AC000005F1FD130488830006820F04060E16E40
:100AD00008432D4988310860E06EB0F1006F06D1FF
:100AE0002948C06840F480102749C8600AE0E06ED9
:100AF000B0F1806F06D10121201D00F0E1FF054615
:100B000005B1A846206800F40020B0F5002F1FD1E1
:100B10001D488830006820F04060216F08431A4962
:100B200088310860206FB0F1006F06D11648C068A8
:100B300040F480101449C8600AE0206FB0F1806F63
:100B400006D10121201D00F0BBFF054605B1A846D6
:100B5000206800F48020B0F5802F24D10A48883026
:100B6000006820F04060616F0843074988310860E1
:100B7000606FB0F1006F0BD10348C06840F4801083
:100B80000149C8600FE00000001002400070004002
:100B9000606FB0F1806F06D10121201D00F090FF41
:100BA000054605B1A846208800F48040B0F5804F86
:100BB0001FD12248006820F04050A16F08431F4910
:100BC0000860A06FB0F1805F07D10221201D00F006
:100BD00077FF05466DB1A8460BE0A06FB0F1005F4E
:100BE00007D1022104F1200001F030F8054605B1DB
:100BF000A846208800F40040B0F5004F09D10F4806
:100C0000006820F08040E16F08430C498839C1F842
:100C10008800206800F48030B0F5803F0AD1074892
:100C2000006820F00040D4F8801008430349883958
:100C3000C1F888004046BDE8F883000088100240F3
:100C40002DE9F04104460D4614B90120BDE8F081BC
:100C50005548006800F00700A8420ED252480068CC
:100C600020F007002843504908600846006800F05B
:100C70000700A84201D00120E8E7207800F0010039
:100C8000002840D06068032806D14848006800F07A
:100C90000070D8B90120D9E76068022806D143481E
:100CA000006800F4003088B90120CFE7606830B9EF
:100CB0003E48006800F0020040B90120C6E73B480A
:100CC000006800F4806008B90120BFE737488068F9
:100CD00020F003006168084334498860FFF71CFC7A
:100CE000064608E0FFF718FC801B41F28831884275
:100CF00001D90320AAE72D48806800F00C00616844
:100D0000B0EB810FEED1207800F00200022807D16D
:100D10002648806820F0F000A168084323498860D5
:100D20002148006800F00700A8420ED91E4800685C
:100D300020F0070028431C4908600846006800F0BE
:100D40000700A84201D0012080E7207800F00400CD
:100D5000042807D11548806820F4E060E168084362
:100D600012498860207800F00800082808D10F4850
:100D7000806820F46050216940EAC1000B49886016
:100D800000F01CF809498968C1F30311084A515C55
:100D900001F01F01C8400749086007480068FFF7D5
:100DA000E5FB0746384651E70020024000100240AC
:100DB00008450008A40000209C000020F0B5002396
:100DC0000020DFF8D4C0DCF808C00CF00C01DFF81C
:100DD000C8C0DCF80CC00CF0030719B10C291ED1F7
:100DE000012F1CD1DFF8B0C0DCF800C00CF0080CFB
:100DF000BCF1000F06D1DFF8A0C0DCF894C0CCF342
:100E0000032305E0DFF890C0DCF800C0CCF3031347
:100E1000DFF888C05CF8233041B9184606E00429A1
:100E200001D11F4802E0082900D11E480C2932D107
:100E3000DFF864C0DCF80CC00CF00304012C09D00E
:100E4000022C02D0032C04D101E0154A04E0154A1B
:100E500002E000BF1A4600BF00BFDFF83CC0DCF86C
:100E60000CC0CCF3021C0CF10106DFF82CC0DCF83E
:100E70000CC0CCF3062C0CFB02FCBCFBF6F2DFF83A
:100E800018C0DCF80CC0CCF3416C0CF1010C4FEA3B
:100E90004C05B2FBF5F0F0BD001002402045000803
:100EA0000024F40000127A002DE9F843044614B936
:100EB0000120BDE8F883F948806800F00C07F74886
:100EC000C06800F00306207800F01000102876D1EA
:100ED0001FB10C2F75D1012E73D1F048006800F0BE
:100EE000020018B1A06908B90120E2E7EB48216AC5
:100EF000006800F0080020B1E848006800F0F00049
:100F000005E0E6489430006800F470600009814212
:100F10001FD9206A01F048F808B10120C9E700BFD5
:100F2000DE48006840F00800DC49086008460068B8
:100F300020F0F000216A0843D849086000BF084645
:100F4000406820F47F40E16940EA0120D3494860CD
:100F50001EE000BFD148006840F00800CF4908609B
:100F60000846006820F0F000216A0843CB49086079
:100F700000BF0846406820F47F40E16940EA012054
:100F8000C6494860206A01F00FF808B1012090E7D7
:100F9000FFF714FFC1498968C1F30311C04A515CCE
:100FA00001F01F01C840BF490860BF480068FFF753
:100FB000DDFA8046B8F1000F4ED0404679E74BE0AD
:100FC000FFE7A06980B3B548006840F00100B3496D
:100FD0000860FFF7A1FA054606E0FFF79DFA401BFF
:100FE000022801D9032064E7AC48006800F0020041
:100FF0000028F2D000BFA948006840F00800A749C7
:1010000008600846006820F0F000216A0843A34900
:10101000086000BF0846406820F47F40E16940EA6C
:1010200001209E49486017E0FFE79C48006820F0D7
:1010300001009A490860FFF76FFA054606E0FFF7DE
:101040006BFA401B022801D9032032E7934800685D
:1010500000F002000028F2D1207800F00100002802
:101060005CD0082F03D00C2F0AD1032E08D18B4857
:10107000006800F4003088B3606878BB012018E78E
:1010800000BF6068B0F5803F06D18448006840F436
:101090008030824908601AE06068B0F5A02F0BD15B
:1010A0007E48006840F480207C490860084600685B
:1010B00040F4803008600AE07848006820F480300E
:1010C000764908600846006820F48020086000BF68
:1010D000606890B1FFF720FA054607E01EE0FFF7D1
:1010E0001BFA401B642801D90320E2E66B48006824
:1010F00000F400300028F2D010E0FFF70DFA0546AA
:1011000006E0FFF709FA401B642801D90320D0E666
:101110006248006800F400300028F2D1207800F026
:101120000200022852D1042F03D00C2F14D1022E1A
:1011300012D15A48006800F4806018B1E06808B91C
:101140000120B6E65548406820F0F850217C40EA7E
:1011500001605249486039E0E06800B34F480068D8
:1011600040F480704D490860FFF7D6F9054606E067
:10117000FFF7D2F9401B022801D9032099E647481E
:10118000006800F480600028F2D04448406820F0F5
:10119000F850217C40EA01604049486016E03F4831
:1011A000006820F480703D490860FFF7B5F90546F6
:1011B00006E0FFF7B1F9401B022801D9032078E6C9
:1011C0003648006800F480600028F2D1207800F0F2
:1011D0000800082836D16069D0B1304894300068E2
:1011E00040F001002D49C1F89400FFF795F905463C
:1011F00006E0FFF791F9401B022801D9032058E6C9
:1012000026489430006800F002000028F1D019E070
:1012100022489430006820F001002049C1F8940071
:10122000FFF77AF9054606E0FFF776F9401B02283A
:1012300001D903203DE619489430006800F002000F
:101240000028F1D1207800F00400042873D14FF079
:1012500000091248806D00F0805078B900BF0F4837
:10126000806D40F080500D4988650846806D00F023
:101270008050009000BF00BF4FF001090B4800688C
:1012800000F4807008BB0948006840F4807007498A
:101290000860FFF741F9054611E000000010024028
:1012A00008450008A40000209C00002000700040B9
:1012B000FFF732F9401B022801D90320F9E59948CC
:1012C000006800F480700028F2D000BFA0680128F8
:1012D00008D19548006840F0010093499039C1F861
:1012E000900021E0A06805280FD18F48006840F0E9
:1012F00004008D499039C1F890000846D0F890005C
:1013000040F00100C1F890000EE08748006820F02E
:10131000010085499039C1F890000846D0F8900046
:1013200020F00400C1F8900000BFA068A0B1FFF752
:10133000F3F8054609E02EE0FFF7EEF8401B41F216
:101340008831884201D90320B3E57748006800F06E
:1013500002000028F0D012E0FFF7DEF8054608E0B2
:10136000FFF7DAF8401B41F28831884201D90320A7
:101370009FE56D48006800F002000028F0D1B9F147
:10138000010F07D168489038806D20F08050664981
:101390009039886500BFA06A00285BD00C2F78D0F8
:1013A000A06A022857D160489038006820F0807009
:1013B0005D4990390860FFF7AFF8054606E0FFF792
:1013C000ABF8401B022801D9032072E5564890383B
:1013D000006800F000700028F1D1D4E90B10401E25
:1013E00041EA0011606B41EA0021A08F0122C2EBAB
:1013F000500041EA40514020005DC2EB500041EAFC
:101400004061A06B000941EA404047499039C968F2
:10141000464A1140084344499039C860084600686C
:1014200040F0807008600846C06840F08070C86076
:10143000FFF772F8054606E0FFF76EF8401B02283A
:1014400001D9032035E538489038006800F0007075
:101450000028F1D064E034489038006820F08070B3
:101460003149903908600846006800F0205020B9E2
:101470000846C06820F00300C8602B489038C06858
:101480002B49084028499039C860FFF745F80546C0
:1014900007E00EE0FFF740F8401B022801D90320C7
:1014A00007E521489038006800F000700028F1D16D
:1014B00036E0A06A012800D1FBE41B489038C668DA
:1014C00006F00301E06A814228D106F07001206B2A
:1014D000401EB1EB001F21D106F4FE41606BB1EB61
:1014E000002F1BD106F40031A06B072801D001208A
:1014F00000E00020814211D106F4C001A08F01223A
:10150000C2EB5000B1EB405F08D106F0C061402053
:10151000005DC2EB5000B1EB406F01D00120C8E488
:101520000020C6E400700040901002408C809DF9BD
:10153000FFFFEEFE70B504462546681EB0F1807FC1
:1015400001D301200FE0681E4FF0E02148610F2118
:101550004FF0FF3000F0EEFD00204FF0E0218861F9
:1015600007200861002070BDFEE78162704781613D
:101570007047416841F0010141607047416841F0A6
:10158000080141607047000010B501460022124872
:1015900081420DD14005114B9B6B03430F4CA3635C
:1015A00000BF00BF23469B6B8343A36300BF11E0D2
:1015B0000B4881420DD12020084BDB6B0343074CC5
:1015C000E36300BF00BF2346DB6B8343E36300BFDD
:1015D00000E00122104610BD007C004000100240D7
:1015E000009400402DE9FF4704464FF0000A72B610
:1015F0003D48204418B1B0F5C05F0CD105E04FF470
:10160000402000F00BF9824606E04FF4401000F055
:1016100005F9824600E000BF00BFA768D4F80C803F
:101620006569A669D4F820902046FFF7ADFF6846AB
:1016300000F008F90DB9002E4AD02B48204418B10B
:10164000B0F5C05F0AD104E04FF4402000F054F937
:1016500005E04FF4401000F04FF900E000BF00BF7C
:10166000BDB1206940F001002061656100BF0098B4
:10167000401E009000BF2068C0F3C00010B9009861
:101680000028F4D100BF606840F00800606000BF2F
:1016900000BFD6B1206940F001002061A661684614
:1016A00000F0D0F800BF0098401E009000BF2068F6
:1016B000C0F3001010B900980028F4D100BF606892
:1016C00040F01000606000BF00BF504600F014F909
:1016D000206920F001002061A760C4F80C80C4F8E4
:1016E000209062B600F002B80084FFBF0FBCBDE8D6
:1016F000F087000030B50246002000BF136903F0F8
:1017000001030BB101200BE0D1E9003423438C68C5
:101710002343CC682343D468024D2C402343D36039
:1017200030BD0000FEF1CFFF0146086800F0010067
:10173000704742696FF30F020A434261704700210C
:10174000016041608160C160704700002DE9F04197
:1017500004460025B4F5402F2BD1204600F068F850
:10176000B0F5402F19D0A0F54020001F20B104286B
:1017700008D008281BD10AE000F086F808B14FF421
:10178000FA4515E000F070F800B1234D10E000F0CC
:1017900073F808B14FF400450AE000F03DFB07463E
:1017A00000F006FB064600F013FB054600E000BF14
:1017B0002EE0B4F5401F2BD1204600F039F8B0F5EB
:1017C000401F19D0A0F54010103820B1102808D0C3
:1017D00020281BD10AE000F057F808B14FF4FA4571
:1017E00015E000F041F800B10B4D10E000F044F8B6
:1017F00008B14FF400450AE000F00EFB074600F088
:10180000D7FA064600F0E4FA054600E000BF00BF44
:101810002846BDE8F08100000024F400014603489A
:101820000068084041EA10407047000088100240FC
:10183000014603480068084041EA10407047000034
:101840008810024010B5044600F0E6FA20602068D7
:1018500000F0AEFA6060606800F0BAFAA0606068FC
:1018600000F0C8FAE06010BD02480068C0F38020B4
:10187000704700000010024002480068C0F34000BA
:10188000704700009010024002480068C0F340001A
:1018900070470000941002400248006800F0F00019
:1018A00070470000001002400248006800F47060B9
:1018B000704700009410024002480068C0F3C00066
:1018C00070470000001002400248C06800F070003D
:1018D00070470000001002400248C06800F003009A
:1018E00070470000001002400248C068C0F30620A4
:1018F000704700000010024005490968020C1204FC
:10190000914341EA0041024A883AC2F88810704780
:101910008810024010B502214FF09040FFF727FEDB
:101920003148FFF726FE00F083FC30490880084666
:1019300000882F490988884200DB04E09B222DA102
:1019400033A000F00BFC2A48008839490880284859
:1019500000883849098808442549088008460088D5
:1019600001F008F900BF2048406980B22049098889
:10197000884200D104E0A1221EA12FA000F0EEFBBE
:1019800002F0C0F802214FF09040FFF7EEFD18483A
:10199000008827490988884205DB154800882449C2
:1019A0000988401A08E0224800884FF6FF71081A9B
:1019B0000F4909880844401C202800D104E0AE22C9
:1019C0000CA12AA000F0CAFB09480388D81703EB32
:1019D000D0604011A3EB401000B904E0AF2205A194
:1019E0002EA000F0BBFB10BD009400400C000020B6
:1019F000080000202E2E5C5372635C746573745F64
:101A00006170706C69636174696F6E2E63000000B1
:101A10006E6F775F697271203E3D2070656E6469FC
:101A20006E675F6D617463685F76616C00000000D3
:101A30000A0000200600002070656E64696E675F12
:101A40006D617463685F76616C203D3D204C4C5F36
:101A50004C5054494D5F476574436F6D70617265BA
:101A6000284C5054494D3229000000004449464654
:101A70002870656E64696E675F6D617463685F7618
:101A8000616C2C206C6173745F6D617463685F7648
:101A9000616C29203D3D2033320000002870656EC6
:101AA00064696E675F6D617463685F76616C202541
:101AB000203078323029203D3D203000FEE770474D
:101AC0002DE9F04104460F4600255C48C06800F04F
:101AD000030090B15948C06800F0030021688842B3
:101AE00009D1206838B15548C068C0F30210401CC5
:101AF0006168884233D0012531E02068012804D094
:101B0000022809D003281AD10DE04C48006800F0E3
:101B1000020000B9012514E04848006800F4806024
:101B200000B901250DE04548006800F4003028B9EF
:101B30004248006800F4802000B9012501E0012539
:101B400000BF00BF5DB9D4E90010401E41EA00109B
:101B50003A49C96821F0730108433849C860002D2B
:101B600068D13648006820F0806034490860FEF78C
:101B7000D3FC064606E0FEF7CFFC801B022801D905
:101B8000032505E02D48006800F000600028F2D130
:101B900000BFCDBB6FB9A0680002E168090940EA47
:101BA000414026490969264A1140084323490861F2
:101BB00020E0012F0FD1A0680002218A0122C2EB90
:101BC000510140EA41501D4909691E4A114008432C
:101BD0001A4908610EE0A0680002217D0122C2EBD3
:101BE000510140EA416015490969174A114008430B
:101BF000124908611148006840F080600F49086090
:101C0000FEF78AFC064607E014E0FEF785FC801B21
:101C1000022801D9032505E00848006800F00060AB
:101C20000028F2D000BF2DB904480069A16908431B
:101C3000024908612846BDE8F0810000001002401A
:101C4000FF80FDFFFF809FFFFF80FFF92DE9F0413E
:101C500004460F4600255348C06800F0030090B1C9
:101C60005048C06800F003002168884209D120680C
:101C700038B14C48C068C0F30210401C616888420B
:101C800033D0012531E02068012804D0022809D092
:101C900003281AD10DE04348006800F0020000B9A3
:101CA000012514E03F48006800F4806000B9012578
:101CB0000DE03C48006800F4003028B9394800685D
:101CC00000F4802000B9012501E0012500BF00BF1C
:101CD0005DB9D4E90010401E41EA00103149C968DD
:101CE00021F0730108432F49C860002D56D12D48BB
:101CF000006820F080502B490860FEF70DFC064676
:101D000006E0FEF709FC801B022801D9032505E047
:101D10002448006800F000500028F2D100BF75BBD5
:101D20006FB9A0680002E168090940EA41401D4915
:101D300049691D4A114008431A4948610EE0A068EC
:101D40000002217C0122C2EB510140EA41601549A9
:101D50004969164A11400843124948611148006810
:101D600040F080500F490860FEF7D6FB064607E0BA
:101D7000FEF7D2FB801B022802D9032506E00DE006
:101D80000848006800F000500028F1D000BF2DB9CD
:101D90000448406961690843024948612846BDE832
:101DA000F081000000100240FF80FDFFFF80FFF97E
:101DB000014600BF0448806800F0F0000009034AB3
:101DC000125C21FA02F0704700100240084500083A
:101DD000014600BF0548806800F4E060044A02EB59
:101DE0001020027821FA02F0704700000010024033
:101DF00018450008014600BF0548806800F460509F
:101E0000044A02EBD020027821FA02F07047000069
:101E1000001002401845000810B500BF294880682E
:101E200000F00C0030B1042822D0082822D00C2861
:101E300026D121E0FFF740FD60B9FFF73DFD10B16D
:101E4000FFF72AFD01E0FFF72FFD000A1E4951F8B8
:101E500020000BE0FFF730FD10B1FFF71DFD01E0A2
:101E6000FFF722FD0009184951F82000044625E03B
:101E7000164C23E0164C21E000F02CF804461DE03F
:101E8000FFF71AFD60B9FFF717FD10B1FFF704FD6A
:101E900001E0FFF709FD000A0B4951F820000BE0B3
:101EA000FFF70AFD10B1FFF7F7FC01E0FFF7FCFCBC
:101EB0000009054951F82000044600BF00BF204634
:101EC00010BD000000100240204500080024F4006E
:101ED00000127A0070B5FFF7FFFC0546012D04D013
:101EE000022D20D0032D22D11FE0FFF7E5FC60B9C1
:101EF000FFF7E2FC10B1FFF7CFFC01E0FFF7D4FCE5
:101F0000000A254951F820000BE0FFF7D5FC10B17D
:101F1000FFF7C2FC01E0FFF7C7FC00091E4951F8BA
:101F20002000044621E01D4C1FE01D4C1DE0FFF782
:101F3000C3FC60B9FFF7C0FC10B1FFF7ADFC01E0D6
:101F4000FFF7B2FC000A144951F820000BE0FFF73C
:101F5000B3FC10B1FFF7A0FC01E0FFF7A5FC0009FE
:101F60000D4951F82000044600BF00BFFFF7ACFC4C
:101F7000012101EB1010B4FBF0F6FFF7B5FC46436E
:101F80000848C06800F0C060012101EB50604000CB
:101F9000B6FBF0F070BD0000204500080024F400FE
:101FA00000127A0000100240F8B5044600262348CB
:101FB000806D00F0805018B1FEF7D0FB054616E0AA
:101FC00000BF1E48806D40F080501C49886508465F
:101FD000806D00F08050009000BF00BFFEF7BEFB98
:101FE00005461648806D20F0805014498865B5F587
:101FF000007F07D1802C10D9A02C01D902260CE03B
:1020000001260AE0802C01D9032606E0802C01D1AC
:10201000022602E0702C00D101260948006820F059
:1020200007003043064908600846006800F00700D2
:10203000B04201D00120F8BD0020FCE700100240B2
:1020400000200240FEF76EBA00B5B9B0442128A8BE
:10205000FEF73FF9142123A8FEF73BF9882101A8D8
:10206000FEF737F9062028904FF480702B9010204F
:102070002C9001202A900020329028A8FEF714FF0F
:1020800008B1FEF745F90F2023900120249000208D
:10209000259026902790042123A8FEF7D1FD08B1B2
:1020A000FEF736F94FF4806001904FF4401019901C
:1020B00001A8FEF75BFB08B1FEF72AF94FF40070A8
:1020C000FEF706FB08B1FEF723F939B000BD0000AA
:1020D0001048006840F470000E4908600E4800681F
:1020E00040F001000C490860002088600846006844
:1020F0000A490840084908608814C8600846006812
:1021000020F48020086000208861C80301498039DC
:102110000860704788ED00E000100240FFFFF6EA1B
:10212000FEE7000002480068C0F30220704700008C
:102130000CED00E010B5002804DB0A07130E054A79
:10214000135406E00A07140E034A00F00F031B1F86
:10215000D45410BD00E400E018ED00E000BFFEE73D
:1021600002E008C8121F08C1002AFAD17047704760
:10217000002001E001C1121F002AFBD170470000BE
:1021800030B585B005460C46142205496846FEF771
:1021900087F8009469462846FEF7BCF805B030BDC4
:1021A000F444000830B585B005460C462146284663
:1021B000FFF7DBF9142205496846FEF771F8009431
:1021C00069462846FEF7A6F805B030BDE044000891
:1021D0000948006800F0010030B90848406820F064
:1021E00002000649486005E00448406840F00200EB
:1021F0000249486070470000F0ED00E0002004E074
:1022000009490120096809B1002070470749CA69D6
:10221000002AF9D1044A283212688968491E8A4284
:10222000F3D10220704700009C0100203400002000
:10223000002200BF084BDB699BB2194608E000BFD3
:10224000054BDB6998B200BF884200D101220146EC
:10225000002AF4D07047000000940040FEF76EF9A9
:10226000FFF7F2FE00204FF0E0210861FFF7B0FF1A
:1022700000F0F2FC00BFFEE72DE9F041184C0F46DC
:102280000546E6682068001D00F08AFD38B9206820
:1022900090F82C1001208840216981432161681C3D
:1022A00007D137B12168BDE8F0410E48091D00F0A3
:1022B000B7BD20683544B5424560216805D2A06BA2
:1022C000BDE8F041091D00F091BD606B091D00F0F3
:1022D0008DFDA06A854200D2A562BDE8F0810000B4
:1022E00034000020C40100202DE9F041054600F033
:1022F000A3FD2E4CA068401CA06020682C4F10B19C
:10230000606940B32DE02560A068012829D100262E
:1023100006EB860007EB800000F058FD761C072EC8
:10232000F6D323488C3000F051FD2148A03000F056
:102330004DFD1F48B43000F049FD1D48C83000F085
:1023400045FD1B48DC3000F041FD19488C306063CE
:102350001430A06305E02068E96AC06A884200D8AA
:102360002560606A401C60626864E96A0120226935
:1023700088401043206101EB810007EB8000291D9C
:1023800000F04EFD00F082FD606900280CD020684E
:10239000E96AC06A884207D206494FF08050086057
:1023A000BFF34F8FBFF36F8FBDE8F0813400002083
:1023B000E800002004ED00E010B500F03DFD1048FD
:1023C0000068D0B90F4800F001FD0F4800F0FEFC96
:1023D0000C480E4908600C480D4908600022102185
:1023E0000A2001F0A9FB064908600846006820B1F0
:1023F00008A10348006801F075F900F047FD10BD21
:1024000078000020D8010020EC010020700000209E
:1024100074000020546D72510000000070B5044635
:102420000D46206C70B1216CE0680844E060616882
:10243000E068884201D32068E0602846226CE168A9
:10244000FDF72EFF70BD2DE9F04104460F461546FD
:102450004FF00008A66B206C40B9206860BB606834
:1024600001F0CAFE80460020606025E07DB9394653
:10247000226CA068FDF714FF216CA0680844A060DE
:10248000D4E90110884217D32068A06014E03946CF
:10249000226CE068FDF704FF216CE068401AE06000
:1024A0002168E068884203D2216C6068401AE060CD
:1024B000022D01D106B1761E701CA0634046BDE816
:1024C000F08110B50446006B00F0FEFC2046BDE82C
:1024D000104000F0F9BC00000A4800210269012AFE
:1024E00000D901210268D26A0AB100207047064A69
:1024F0001268012AF9D80029F7D1816AC068081A40
:102500007047000034000020E80000200146084A1F
:10251000126812680AB9012200E000220A600A6803
:1025200022B9034A1268D268106800E000207047A0
:1025300070000020204C214E12E000BF00F07CFC17
:10254000F068C568281D00F02BFCA068401EA06044
:102550006068401E606000F099FC2846FFF7B1FFFC
:1025600060680028EAD11548C8380068012807D9F2
:1025700013494FF080500860BFF34F8FBFF36F8F48
:10258000FFF7AAFF0228D6D301F0BCF9A06AE168E0
:10259000884207D2502080F31188BFF34F8FBFF3DA
:1025A0006F8FFEE7FFF798FF022801D300F08AFD46
:1025B00001F0ACFEBFE7000034000020B0010020B5
:1025C00004ED00E02DE9F04106460D461746984619
:1025D000069C0DB9246000E02760E66325640121B4
:1025E000204601F0D5FA84F84C80BDE8F0812DE951
:1025F000F0470E46DDE90984174682469100994668
:10260000089DA522206BFDF75DFE6FF00301206B96
:1026100001EB8701084420F00707780707D0502016
:1026200080F31188BFF34F8FBFF36F8FFEE722183F
:10263000315C82F83410315C11B1401C1028F6D3A3
:10264000002684F84360072D00D30625E562C4E91F
:102650001356201D00F0C7FB04F1180000F0C3FB67
:102660002461C5F107006462A0616665A66584F80F
:102670005C604A465146384600F066FA2060B8F180
:10268000000F01D0C8F80040BDE8F0872DE9F04107
:1026900004460D4616461F464FF00008656024614B
:1026A000B5420CD8F01BA169884202D34FF0010853
:1026B00011E0211D0948006800F098FB0BE0BE42C4
:1026C00004D2BD4202D34FF0010804E0211D0448AA
:1026D000006800F08BFB4046BDE8F08174000020EC
:1026E0007000002070B5054600F0A6FBA86B08B985
:1026F000012400E0002400F0C9FB204670BD70B545
:10270000054600F099FBA86BE96B884201D10124D2
:1027100000E0002400F0BAFB204670BDF8B5054685
:102720000F4616480068C068C468201D00F038FBDA
:10273000E06901281DD1A06941192B463A4620467F
:10274000FFF7A4FFA8B1002003462A4601460090E7
:10275000204601F069FE064656B900BF502080F3BE
:102760001188BFF34F8FBFF36F8F00BF00BFFEE72D
:1027700000BF2046616A8847F8BD00007000002055
:10278000F0B587B07FE00398002811DA04AE56B99F
:1027900000BF502080F31188BFF34F8FBFF36F8FBE
:1027A00000BF00BFFEE7D6E90020B168904700BF38
:1027B0000398002867DB059C606908B9012000E0E8
:1027C000002010B9201D00F0EBFA02A800F0B2F8CA
:1027D000054603980A2854D2DFE800F009050731BE
:1027E000334F0608323400BF00BF00BF00BF04985B
:1027F000A269811803462A462046FFF747FFE8B141
:102800002046616A8847E069012817D100200090BE
:102810000498A169421800231946204601F004FEDD
:10282000074657B900BF502080F31188BFF34F8F80
:10283000BFF36F8F00BF00BFFEE700BF22E000BF05
:1028400020E000BF0498A061A06908B1012000E069
:10285000002050B900BF502080F31188BFF34F8F84
:10286000BFF36F8F00BF00BFFEE7A06941192B4681
:102870002A462046FFF70AFF04E0204600F024FB2A
:1028800000E000BF00BF002203A90448006801F077
:102890001FFB00287FF477AF07B0F0BD7800002061
:1028A000F8B505460C4601F02DF8684600F042F8F0
:1028B0000646009820BB44B9B54206D801F026FD73
:1028C00031462846FFF72AFF1CE03CB10E4800685D
:1028D000006808B9012000E000200446A91B224638
:1028E0000A48006800F014FF01F010FD50B94FF0E5
:1028F000805007490860BFF34F8FBFF36F8F01E02F
:1029000001F004FDF8BD00007400002078000020F4
:1029100004ED00E00648416B096829B1416BC968C4
:10292000C9684968816270474FF0FF31FAE70000DB
:102930003400002070B5044601F0F4FB054607485A
:102940000068854204D200F00BF80120206001E00D
:102950000020206001480560284670BD80000020EE
:102960002DE9F84332E024480068C0680568224831
:102970000068C068C468201D00F012FA2046616A31
:102980008847E069012821D1A0694619AE4207D9DC
:1029900066602461211D1848006800F027FA15E0E0
:1029A000002003462A4601460090204601F03CFDE7
:1029B000074657B900BF502080F31188BFF34F8FEF
:1029C000BFF36F8F00BF00BFFEE700BF0A4800687B
:1029D000006808B9012000E000200028C3D00648A4
:1029E000D0F8008005480068034908600348C0F833
:1029F0000080BDE8F8830000700000207400002013
:102A00000E480068401C08B9012000E0002050B9C1
:102A100000BF502080F31188BFF34F8FBFF36F8F3B
:102A200000BF00BFFEE700BF502080F31188BFF356
:102A30004F8FBFF36F8F00BF00BFFEE78400002001
:102A400008B500BF6846FFF761FD044620460099BF
:102A5000FFF726FFFFF794FEF4E770B5044600F099
:102A6000EBF994F9455010E0606A08B9012000E0E4
:102A7000002038B904F1240001F00AFC18B100F07C
:102A8000BBFE00E003E0681E45B2002DECDC00BF99
:102A9000FF2084F8450000F0F9F900F0CDF994F931
:102AA000445010E0206908B9012000E0002048B936
:102AB00004F1100001F0ECFB08B100F09DFE681E6F
:102AC00045B200E001E0002DECDC00BFFF2084F8FF
:102AD000440000F0DBF970BD70B50446002504F039
:102AE000070020B104F00700C0F10800044400F022
:102AF00009FF1248006820B9114820F007000F496B
:102B0000086010480068204447F6F871884210D2E7
:102B10000C48006820440B490968884209D90748D5
:102B200000680849096845180648006820440549B6
:102B3000086001F0EBFB284670BD00009400002007
:102B40000802002090000020001F4FF080730360F7
:102B5000001F21F001030360001F054B03601438C0
:102B60000260001F6FF0020303602038704700000E
:102B7000012A000810B5044621460948FEF7D9FD90
:102B800000BF00BF06480068C0F3C0000028F8D0AE
:102B90000348FEF7F3FC0248FEF7EBFC10BD000013
:102BA0000094004000BF0648006820F0040004497B
:102BB000086000BF00BF00BF30BF012070470000A9
:102BC00010ED00E008B501F0ADFA00900BE06421D3
:102BD000684600F0C3FD01210348FEF7C8FC01214F
:102BE0000148FEF7C2FCF2E70004004808B501F016
:102BF00099FA00900BE05A21684600F0AFFD0221DF
:102C00000348FEF7B4FC02210148FEF7AEFCF2E7F0
:102C10000004004808B5002201210A2000F08CFFC2
:102C20000B49086012E04FF0FF326946084800681F
:102C300001F04EF904464FF400610648FEF797FC98
:102C40004FF400610348FEF790FC00BFEBE7000083
:102C500030000020000800481CB500BF4948C06C87
:102C600040F001004749C8640846C06C00F001000C
:102C7000019000BF00BF00BF0846C06C40F00200DA
:102C8000C8640846C06C00F00200019000BF00BF9D
:102C900000BF0846C06C40F00400C8640846C06C21
:102CA00000F00400019000BF00BF00BF0846C06CE8
:102CB00040F00800C8640846C06C00F008000190AD
:102CC00000BF00BF00BF0846C06D40F02000C865CF
:102CD0000846C06D00F02000019000BF00BF012138
:102CE0002948FFF75FFA02212748FFF75BFA4FF404
:102CF00000412548FFF756FA4FF400712248FFF7CC
:102D000051FA02214FF09040FFF74CFA4FF4006166
:102D10001E48FFF747FA4FF480411B48FFF742FA7D
:102D200020211A48FFF73EFA002206210720FDF76E
:102D300079FC0720FDF766FC02211548FFF720FA11
:102D40000020042103468A01CDE900100146114804
:102D500001F0ACF90020042103468A01CDE90010FE
:102D600001460D4801F0A2F90020042103468A0122
:102D7000CDE900100146094801F098F962B600F06B
:102D800075FD1CBD0010024000040048000800480A
:102D9000000C0048C52B0008ED2B0008152C00087E
:102DA00001460A69D1E901309860D1E90103586010
:102DB0005068884201D1886850600020086110681E
:102DC000401E10601068704700BFFEE700F1080168
:102DD00041604FF0FF31816000F10801C160016185
:102DE00000210160704700210161704710B5024663
:102DF0000B685C1C0CB9106907E002F1080000E0E8
:102E00004068446824689C42FAD944684C604C6825
:102E1000A160886041600A611468641C146010BD80
:102E200042684A6093688B6093685960916008615A
:102E300003685B1C0360704700BF502080F311885B
:102E4000BFF34F8FBFF36F8F00BF0E480068401C69
:102E50000C49086008460068012812D10A48006839
:102E6000C0B208B9012000E0002050B900BF5020D6
:102E700080F31188BFF34F8FBFF36F8F00BF00BF88
:102E8000FEE770478400002004ED00E00D48006874
:102E900050B900BF502080F31188BFF34F8FBFF3AC
:102EA0006F8F00BF00BFFEE706480068401E05495F
:102EB00008600846006820B9002080F3118800BF30
:102EC00000BF70478400002008B9012100E0002104
:102ED00051B900BF502181F31188BFF34F8FBFF369
:102EE0006F8F00BF00BFFEE77047000000B585B0E0
:102EF00020204C49C96D01434A4AD1651146C96D2C
:102F00000140009100BF00BF4748FEF76BFB4648F9
:102F1000FEF73AFB01A8FEF712FC01A94248FEF7B2
:102F2000E9FB00BF4048806840F001003E498860EE
:102F300000BF00BF0846806820F00200886000BF24
:102F40004FF44010FEF702FC38490860084600685C
:102F50004FF47A71B0FBF1F035490880FFF768F95A
:102F600000B904E0CE2233A139A0FFF7F7F83048CA
:102F70000088202800D104E0CF222EA13AA0FFF73C
:102F8000EDF8002040490880294800883F49088022
:102F9000084600883C490988884205DB3B48008890
:102FA00039490988401A08E0374800884FF6FF7110
:102FB000081A364909880844401C202800D104E03A
:102FC000D4221CA132A0FFF7C9F800BF164800693F
:102FD00040F001001449086100BF0846FEF7CEFA30
:102FE0002A4801881048FEF7A4FB354908880E4995
:102FF00089696FF30F0101430B4A916100BF002201
:103000000F214220FDF70EFB4220FDF7FBFA0420C2
:103010000549096921F006010143034A116100BF16
:1030200005B000BD001002400094004000000020E8
:10303000060000202E2E5C5372635C746573745F0F
:103040006170706C69636174696F6E2E630000005B
:103050006765745F6C7074696D5F76616C75652807
:1030600029203D3D20300000756C54696D65724328
:103070006F756E7473466F724F6E655469636B2023
:103080003D3D2033320000000A00002008000020EF
:10309000444946462870656E64696E675F6D617469
:1030A00063685F76616C2C206C6173745F6D617412
:1030B00063685F76616C29203D3D2033320000005B
:1030C0000400002010B504462021FC48FEF74FFA0A
:1030D000B4F5006F01D340F2FF74F94800886043F3
:1030E000F849088072B6BFF34F8FBFF36F8FFFF7B9
:1030F00087F800281FD162B6F3480088F349098891
:10310000884205DBF0480088F0490988401A08E049
:10311000EE4800884FF6FF71081AEB490988084409
:10312000401C202800D105E04FF48272E8A1EFA0F6
:10313000FFF714F810BD00BFF848406980B2E249BB
:103140000988884200D105E040F20912E0A1F4A00C
:10315000FFF704F8DC480388D81703EBD060401170
:10316000A3EB401000B905E04FF48572D8A1F9A097
:10317000FEF7F4FFFFF75CF8FE490880D2480088AC
:103180000988884205DBD0480088FA490988401A36
:1031900008E0F84800884FF6FF71081ACA49098804
:1031A0000844401C052826DC00BF00BF30BF62B6C3
:1031B0002021C248FEF7D9F9C3480088C3490988CD
:1031C000884205DBC0480088C0490988401A08E0E9
:1031D000BE4800884FF6FF71081ABB4909880844A9
:1031E000401C202800D105E04FF48C72B8A1BFA08C
:1031F000FEF7B4FF9EE7B5480088B2490988084445
:10320000DD49088008460088FFF7B4FCFFF710F896
:10321000DA49088000BFC148406980B2D6490988B0
:10322000884200D105E040F22512A9A1D4A0FEF702
:1032300095FFA5480388D81703EBD0604011A3EB96
:10324000401000B905E04FF49372A1A1C1A0FEF7B0
:1032500085FFB2480068D6490860FFF7A3FCAF4875
:103260000068D449086098480388D81703EBD060F9
:103270004011A3EB401000B905E04FF4977294A100
:10328000B4A0FEF76BFFA548FEF74EFA002851D018
:10329000422000280DDBC849420951F8221000F0F5
:1032A0001F0301229A40114009B1012102E00021CF
:1032B00000E0002121B19948FEF736FA00B105E09F
:1032C00040F2351282A1BD48FEF748FF4FF400716D
:1032D000BB48FEF74CF94FF40071B948FEF745F9C9
:1032E000FEF7A6FFB749088008460088A24909886A
:1032F000884205DBB34800889F490988401A08E0E6
:103300009D4800884FF6FF71081AAE4909880844A5
:10331000401C022800DC05E04FF49E726CA1AAA0BC
:10332000FEF71CFF9448008867490880601E00F083
:10333000D5FA8CE14FF48041A148FEF718F9FEF769
:1033400077FFAB490880084600885D49098890FBF3
:10335000F1F201FB1200A6490988081AA549088064
:103360000846008859490988884205DBA148008839
:1033700056490988401A08E0544800884FF6FF7102
:10338000081A9C4909880844401C9B490880084643
:1033900000884B49098890FBF1F0984908609849EA
:1033A0000C80964800680988884200D805E040F201
:1033B0005B1247A193A0FEF7D1FE43480388D817BC
:1033C00003EBD0604011A3EB401000B905E04FF4CF
:1033D000AE723FA15FA0FEF7C1FE86480088384963
:1033E000098808446449088008460088804909889B
:1033F000884205DB604800887D490988401A08E05A
:103400007B4800884FF6FF71081A5B490988084419
:10341000401C042848DC601E78490968884237D877
:103420005548008826490988401A2849088052488A
:103430000088254908807148006800F04FFA4FF471
:1034400080415F48FEF791F820211C48FEF78DF877
:1034500062B61D4800881D490988884205DB1A4864
:1034600000881A490988401A08E0184800884FF671
:10347000FF71081A144909880844401C202800D10B
:1034800005E040F26D1212A118A0FEF767FE51E6AA
:10349000394800880A49098808443749088057484C
:1034A0000068401C55490860334800880449098871
:1034B000401A0649088030480088B9E000080048F2
:1034C000060000201A000020080000200A0000204A
:1034D0002E2E5C5372635C746573745F6170706CE4
:1034E00069636174696F6E2E63000000444946464B
:1034F0002870656E64696E675F6D617463685F767E
:10350000616C2C206C6173745F6D617463685F76AD
:10351000616C29203D3D20333200000000940040C2
:103520004C4C5F4C5054494D5F476574436F6D7010
:10353000617265284C5054494D3229203D3D207020
:10354000656E64696E675F6D617463685F76616CF8
:10355000000000002870656E64696E675F6D6174BD
:1035600063685F76616C2025203078323029203DF9
:103570003D2030000E000020100000202000002020
:1035800074656D705F6D617463685F76616C203D1A
:103590003D204C4C5F4C5054494D5F476574436F20
:1035A0006D70617265284C5054494D3229000000FD
:1035B000240000202800002000E200E05045000820
:1035C00000040048120000204449464628206E6F3F
:1035D000775F6D61746368202C74656D705F6D61D9
:1035E0007463685F76616C29203C3D2032000000E6
:1035F0001400002016000020180000201C000020ED
:103600002C000020756C436F6D706C657465546997
:10361000636B506572696F6473203C3D2065787000
:1036200065637465645F69646C655F74696D65008A
:103630000A49088008460088FFF79CFA0848006895
:1036400000F04CF94FF480410648FDF78EFF202131
:103650000548FDF78AFF62B600BF6BE50800002051
:103660001C000020000400480008004870B5FCF76A
:10367000F1FD0446102C16D304F1E02090F8F0532D
:1036800015480078854201DB012000E0002050B998
:1036900000BF502080F31188BFF34F8FBFF36F8FAF
:1036A00000BF00BFFEE70D48006800F4E0600C4971
:1036B0000968884201D8012000E0002050B900BF0D
:1036C000502080F31188BFF34F8FBFF36F8F00BF7F
:1036D00000BFFEE770BD0000880000200CED00E098
:1036E0008C000020024600200BE0084B53F83030DD
:1036F00033B9064B43F8301003EBC0035A6002E0C5
:10370000401C0828F1D300BF70470000A80000202B
:103710002DE9F04105460E4617462C46FFF78CFB77
:1037200094F94400401C10B9002084F8440094F936
:103730004500401C10B9002084F84500FFF7A6FBA7
:10374000A06B28B93A46314604F1240000F072F823
:103750002046FFF782F9BDE8F081000070B50D4604
:1037600004000BD095B11E4A106BB8B1502080F305
:103770001188BFF34F8FBFF36F8FFEE7502080F3A8
:103780001188BFF34F8FBFF36F8FFEE7502080F398
:103790001188BFF34F8FBFF36F8FFEE700F0B2F8D1
:1037A000D26823685919934204D98B420AD99142AD
:1037B00002D807E08B42FAD9881A21600021FEF76F
:1037C0005BFD00E0216000F0A1FD002807D1054964
:1037D0004FF080500860BFF34F8FBFF36F8F70BD05
:1037E0003400002004ED00E002490A6A0260C96862
:1037F000416070473400002001490120C8617047D2
:103800003400002010B50C4650B109490968183140
:10381000FFF7ECFA2046BDE810400121FEF72CBD71
:10382000502080F31188BFF34F8FBFF36F8FFEE7F7
:103830003400002070B514460D4668B10A49096885
:103840001831FFF7EDFA0CB14FF0FF35214628464D
:10385000BDE87040FEF710BD502080F31188BFF323
:103860004F8FBFF36F8FFEE7340000201CB5174861
:103870000024CDE900402346802215A1164800F01F
:1038800015FC012803D100F0A3FD012809D0401C3C
:103890001AD1502080F31188BFF34F8FBFF36F8F81
:1038A000FEE7502080F31188BFF34F8FBFF36F8F77
:1038B00006484FF0FF312C38816201214161C4601C
:1038C000BDE81C4000F06AB81CBD0000600000208C
:1038D00049444C4500000000352500080849CA68E5
:1038E0008B6A02449A4207D9502080F31188BFF3B3
:1038F0004F8FBFF36F8FFEE7CA681044C8607047F0
:10390000340000200248016B491C0163704700002D
:103910003400002010B51F4C206B10B10120E06175
:1039200010BD0020E06120684FF0A531006B0268F7
:103930008A4208D142688A4205D182688A4202D10D
:10394000C068884204D0216820683431FFF73CFA0F
:1039500020691149B0FA80F0C0F11F0000EB80002F
:1039600051F820206AB101EB800000F108024168A3
:1039700049684160914201D149684160C86820604E
:1039800010BD502080F31188BFF34F8FBFF36F8FAE
:10399000FEE7000034000020E80000201CB552487B
:1039A00000685249884201D0012000E0002050B94F
:1039B00000BF502080F31188BFF34F8FBFF36F8F8C
:1039C00000BF00BFFEE7484800684849491E8842DA
:1039D00001D0012000E0002050B900BF502080F34A
:1039E0001188BFF34F8FBFF36F8F00BF00BFFEE79B
:1039F0003F49084600780190FF200A4610700846AB
:103A0000007800909DF8000000F0F0009DF8002084
:103A1000904201D1012000E0002050B900BF5020A9
:103A200080F31188BFF34F8FBFF36F8F00BF00BFCC
:103A3000FEE79DF8000000F050002E4A10700720AD
:103A40002D4A106009E02C480068401E2A4A106088
:103A50009DF800004006000E00909DF8000000F068
:103A600080008028EFD024480068C0F107000428B7
:103A700001D1012000E0002050B900BF502080F3A8
:103A80001188BFF34F8FBFF36F8F00BF00BFFEE7FA
:103A9000194800680002184A10601046008800F4B7
:103AA000E0601060124A019810700F4820300068E2
:103AB00040F470000C49203108600846006840F06E
:103AC00070400860FFF712FA00200C490860FCF70C
:103AD00089FB0B48006840F0404009490860FCF74A
:103AE0006DFB00201CBD000000ED00E071C20F4125
:103AF00000E400E0880000208C000020840000200A
:103B000034EF00E010B500BF502080F31188BFF300
:103B10004F8FBFF36F8F00BF00F00AFB18B14FF05B
:103B200080500449086000BF002080F3118800BF66
:103B300010BD000004ED00E02DE9F84305460E46F7
:103B400090460DB1012000E0002050B900BF502088
:103B500080F31188BFF34F8FBFF36F8F00BF00BF9B
:103B6000FEE70EB9002701E005FB06F707F150005C
:103B7000FEF7B2FF044644B104F1500943464A46F9
:103B8000314628460094FEF71DFD2046BDE8F88327
:103B900070B505460E462C4654B900BF502080F340
:103BA0001188BFF34F8FBFF36F8F00BF00BFFEE7D9
:103BB000FFF742F9D4E90F12206801FB02006060B0
:103BC0000020A0632068A060E06B401E226C21688A
:103BD00000FB0210E060FF2084F8440084F84500F8
:103BE0009EB9206908B9012000E00020A8B904F1BD
:103BF000100000F04DFB80B14FF080500949086083
:103C0000BFF34F8FBFF36F8F07E004F11000FFF792
:103C1000DDF804F12400FFF7D9F8FFF737F90120A8
:103C200070BD000004ED00E02DE9FF4383B00646BF
:103C300088461D464FF00009344654B900BF502055
:103C400080F31188BFF34F8FBFF36F8F00BF00BFAA
:103C5000FEE7B8F1000F01D1206C08B9012000E0A7
:103C6000002050B900BF502080F31188BFF34F8F60
:103C7000BFF36F8F00BF00BFFEE7022D02D1E06BE4
:103C8000012801D1012000E0002050B900BF5020E0
:103C900080F31188BFF34F8FBFF36F8F00BF00BF5A
:103CA000FEE700F031FA08B9059808B9012000E0F4
:103CB000002050B900BF502080F31188BFF34F8F10
:103CC000BFF36F8F00BF00BFFEE700BFFFF7B4F880
:103CD000A06BE16B884201D3022D28D12A464146D0
:103CE0002046FEF7B0FB0746606A08B9012000E0F5
:103CF000002068B904F1240000F0CAFA88B14FF03E
:103D0000805032490860BFF34F8FBFF36F8F08E0D8
:103D10003FB14FF080502D490860BFF34F8FBFF384
:103D20006F8FFFF7B3F8012007B0BDE8F083059867
:103D300018B9FFF7ABF80020F6E7B9F1000F04D18E
:103D400001A8FFF751FD4FF00109FFF79FF8FFF7BA
:103D5000D9FDFFF771F894F94400401C10B9002018
:103D600084F8440094F94500401C10B9002084F800
:103D70004500FFF78BF805A901A800F05DF9F0B93F
:103D80002046FEF7BCFCA0B104F110000599FFF736
:103D900039FD2046FEF761FE00F0B8FA002895D103
:103DA0004FF0805009490860BFF34F8FBFF36F8F0A
:103DB0008CE72046FEF751FE00F0A8FA86E7204681
:103DC000FEF74BFE00F0A2FA0020ADE704ED00E0A4
:103DD0002DE9F05F07468A4690461E463C4654B998
:103DE00000BF502080F31188BFF34F8FBFF36F8F58
:103DF00000BF00BFFEE7BAF1000F01D1206C08B987
:103E0000012000E0002050B900BF502080F311884D
:103E1000BFF34F8FBFF36F8F00BF00BFFEE7022ECF
:103E200002D1E06B012801D1012000E0002050B94F
:103E300000BF502080F31188BFF34F8FBFF36F8F07
:103E400000BF00BFFEE7FFF711FC00BF5021EFF3FA
:103E5000118081F31188BFF34F8FBFF36F8F00BFC5
:103E60000546A06BE16B884201D3022E23D194F961
:103E700045B0324651462046FEF7E5FA0BF1010007
:103E800088B9606A08B9012000E0002080B904F117
:103E9000240000F0FDF958B1B8F1000F08D001205E
:103EA000C8F8000004E00BF1010040B284F84500BE
:103EB0004FF0010901E04FF0000900BF85F31188C0
:103EC00000BF484600F000B830BCBDE8C09F00000D
:103ED0002DE9F74183B005460E464FF000082C4609
:103EE00054B900BF502080F31188BFF34F8FBFF348
:103EF0006F8F00BF00BFFEE70EB9206C08B901202C
:103F000000E0002050B900BF502080F31188BFF3BB
:103F10004F8FBFF36F8F00BF00BFFEE700F0F4F8D4
:103F200008B9059808B9012000E0002050B900BF89
:103F3000502080F31188BFF34F8FBFF36F8F00BF06
:103F400000BFFEE700BFFEF777FFA76BF7B1314672
:103F50002046FEF763FA781EA063206908B90120A5
:103F600000E0002060B904F1100000F091F938B1D0
:103F70004FF080502F490860BFF34F8FBFF36F8F12
:103F8000FEF784FF012006B0BDE8F081059818B95E
:103F9000FEF77CFF0020F6E7B8F1000F04D101A87E
:103FA000FFF722FC4FF00108FEF770FFFFF7AAFCB5
:103FB000FEF742FF94F94400401C10B9002084F839
:103FC000440094F94500401C10B9002084F84500D5
:103FD000FEF75CFF05A901A800F02EF8F0B9204615
:103FE000FEF780FBA0B104F124000599FFF70AFC5D
:103FF0002046FEF732FD00F089F90028A3D14FF0EA
:1040000080500C490860BFF34F8FBFF36F8F9AE762
:104010002046FEF722FD00F079F994E72046FEF7EE
:104020001CFD00F073F92046FEF75CFB00288AD0E7
:104030000020A8E704ED00E02DE9F0410C46050062
:1040400011D0C4B1FEF7F8FE174BDA686E6820682D
:10405000911B471C17D02F681B6A9F4219D09642AC
:1040600017D8012410E0502080F31188BFF34F8F40
:10407000BFF36F8FFEE7502080F31188BFF34F8F9F
:10408000BFF36F8FFEE70024FEF700FF2046BDE878
:10409000F081884205D9401A20602846FFF7A4FB2A
:1040A000F1E700202060DCE7340000202DE9FF5F0D
:1040B0008346DDE90E87994616468A469000FEF74C
:1040C0000BFD05001AD06020FEF706FD040012D09B
:1040D00025630021CDE90241CDE900874B463246F8
:1040E00051465846FEF783FA2046FEF7FDF80120B8
:1040F00004B000F006B82846FEF7E6FE4FF0FF30A9
:10410000F6E730BCBDE8C09F0548416919B1006BB6
:1041100018B100207047012070470220704700004E
:10412000340000200148C0687047000034000020BF
:104130002DE9F0412E4C0027206B40B1A069401CB6
:10414000A061E06900B101273846BDE8F081E6686A
:10415000761CE66013D1606B006838B1502080F3A4
:104160001188BFF34F8FBFF36F8FFEE7606BA16BBA
:104170006163A063206A401C2062FEF7CBFBA06A4B
:10418000DFF87080864209D3606B006880B1606B95
:10419000C068C568686886420DD2A0622068C06A9F
:1041A00000EB800158F821000128CAD90127C8E78F
:1041B0004FF0FF30F1E7281DFEF7F2FDA86A18B1B5
:1041C00005F11800FEF7ECFDE86A01212269814043
:1041D0001143216100EB800108EB8100291DFEF7EE
:1041E0001FFEE86A2168C96A8842CDD30127CBE760
:1041F00034000020E800002070B504004FF00001FA
:1042000040D0214D2868844207D0502080F3118887
:10421000BFF34F8FBFF36F8FFEE7206D38B1401EA5
:104220002065E36CE26A9A422CD040B12AE050202B
:1042300080F31188BFF34F8FBFF36F8FFEE7201D10
:10424000FEF7AEFD114A012150B9E06A00EB800390
:1042500052F8233023B92B6901FA00F083432B6114
:10426000E06CE062C0F10700A061E06A2B69814068
:104270001943296100EB800002EB8000211DFEF74D
:10428000CFFD0121084670BD34000020E800002069
:104290002DE9F041C068C468A4B104F118000746D4
:1042A000FEF77EFD174D286B012698B1394616485A
:1042B000FEF7B6FDE06A2968C96A88421BD9012465
:1042C000EE6119E0502080F31188BFF34F8FBFF3E8
:1042D0006F8FFEE7201DFEF763FDE16A2A6906FA8B
:1042E00001F01043286101EB81000749B43901EB6B
:1042F0008000211DDCE70024FEF70CFB2046BDE812
:10430000F0810000340000209C0100202DE9F047DE
:104310002C4D00242746286B38B1FEF78DFD286B05
:10432000401E2863286B40B146E0502080F311887E
:10433000BFF34F8FBFF36F8FFEE7A968224E0120B6
:10434000D1B3A6F1B40980463068E8B1F068C4681A
:1043500004F11800FEF724FD201DFEF721FDE06AA0
:104360002A6908FA00F11143296100EB800109EB89
:104370008100211DFEF754FDE06A2968C96A884260
:10438000E2D3C5F81C80DFE70CB1FEF7C3FAAC69D5
:1043900044B14646FFF7CCFE00B1EE61641EF9D190
:1043A0000020A861E86938B108490127380708608A
:1043B000BFF34F8FBFF36F8FFEF768FD3846BDE840
:1043C000F0870000340000209C01002004ED00E094
:1043D0001CB50024FDF7F0FF0E48006858B10E48E8
:1043E000062100234FF48072CDE900100BA10D4887
:1043F000FFF75CFE044654B900BF502080F31188DB
:10440000BFF34F8FBFF36F8F00BF00BFFEE72046A3
:104410001CBD0000780000207C000020546D72203C
:1044200053766300412A00082DE9FF4704460D46F4
:1044300016461F46DDF830804FF0000954B900BF22
:10444000502080F31188BFF34F8FBFF36F8F00BFF1
:1044500000BFFEE71448006810B30095019602946F
:10446000062D15DAFFF750FE022808D10023424638
:1044700069460D480068FFF7D7FB814610E000232E
:104480001A46694608480068FFF7CEFB814607E0F8
:1044900000233A46694604480068FFF799FC8146C4
:1044A000484604B0BDE8F08778000020081C30447E
:1044B000586C80000000000404043C3C000008002C
:1044C00000000800080000080000000800000002CA
:1044D0000406080A0C101400010203040506080A69
:1044E00000000000010000000000000003000000C8
:1044F000000000000000000000001110010000009A
:1045000003000000000000000000000000000000A8
:104510000102030406070809000000000102030469
:10452000A0860100400D0300801A060000350C0033
:1045300040420F0080841E0000093D0000127A00F6
:104540000024F40000366E010048E801006CDC0233
:104550004E5649435F47657450656E64696E67499E
:104560005251284C5054494D325F4952516E2920C6
:104570002626204C4C5F4C5054494D5F4973416393
:1045800074697665466C61675F434D504D284C50A9
:1045900054494D3229000000B845000800000020B1
:1045A000A80000006021000860460008A800002064
:1045B000588500007021000800000000FFFF000087
:1045C00000000000000000000000000000000000EB
:1045D00000000000000000000000000000000000DB
:1045E00000000000000000000000000000000000CB
:1045F00000000000000000000000000000000000BB
:1046000000000000000000000000000000000000AA
:10461000000000000000000000000000000000009A
:10462000000000000000000000000000000000008A
:10463000000000000000000000000000AAAAAAAAD2
:10464000000000000000000000000000000000006A
:1046500000000000100000000100000000093D0003
:040000050800018965
:00000001FF
